:1000000000800020BD010000251E0000DD1D000055
:10001000DD1D0000DD1D0000DD1D0000DD1D0000F8
:10002000DD1D0000DD1D0000DD1D0000251E00009F
:10003000251E0000DD1D0000593400005D35000064
:10004000251E0000251E0000251E0000251E0000A4
:10005000251E0000251E0000251E0000251E000094
:10006000251E0000251E0000251E0000251E000084
:10007000251E0000251E0000251E0000251E000074
:10008000251E0000251E0000251E0000251E000064
:10009000251E0000251E0000251E0000251E000054
:1000A000911C00009D1C0000251E0000251E000064
:1000B000251E0000251E0000251E0000251E000034
:1000C000251E0000251E0000251E0000251E000024
:1000D000251E0000251E0000251E0000251E000014
:1000E000251E0000251E0000251E0000251E000004
:1000F000251E00000D3A0000251E0000393B0000BF
:10010000251E0000653C0000251E0000251E000085
:10011000251E0000251E0000251E0000251E0000D3
:10012000251E0000251E0000251E0000251E0000C3
:10013000251E0000251E0000251E0000251E0000B3
:10014000251E0000251E0000251E0000251E0000A3
:10015000251E0000251E0000251E0000251E000093
:10016000251E000075240000251E0000251E00002D
:10017000251E0000251E0000251E0000251E000073
:10018000251E0000251E0000251E0000251E000063
:10019000251E0000251E0000251E0000251E000053
:1001A000251E0000251E0000251E0000251E000043
:1001B000251E0000251E0000251E0000564B4CF297
:1001C000205210B51A804DF628121A8000BF00BFC9
:1001D00001F02CFE514B4FF010621A60504A9A60A9
:1001E000504ADA60504A136813F4807304D14F49BF
:1001F0000B604FF4A85313604D4B1A78110703D5C9
:100200001A7842F008021A704A4B4B492A221A7097
:100210004A4A4B4B8B4204D252F8040F43F8040B6A
:10022000F8E7484B484900228B4202D243F8042B9E
:10023000FAE74649464A002352F8230041F82300D2
:1002400001336F2BF8D1434B434A802103F8011B44
:100250009342FBD1414B3D4A1A60414B8A221A70AE
:10026000A3F5805324225A70A0221A709A7992071B
:10027000FCD59A79D406FCD43A4A937903F00C035E
:10028000082B384BF9D103221A7140225A719A79FE
:100290009006FCD5334A9179324B4906FBD5324A58
:1002A000324911600221516020221A709A7902F0BD
:1002B0000C020C2AFAD12E4B2E4A1A602E4B2F4AD2
:1002C0001A6000225A60072243F8042C2C4AC3F813
:1002D0000C2D62B601F084FF144B1B68DA0705D5BC
:1002E000284801F0E1FE284B284A1A60284B1B7869
:1002F0005B0609D5244C254B22689A4204D121483B
:1003000001F0D2FE0023236004F0EEF901F094FD29
:1003100003F06AFAFEE700BF0E200540308004407B
:10032000823F04000100002B10D0034014D0034092
:1003300002D0074000E007404894FF1F9477010077
:100340002087FF1F4894FF1FF498FF1F0082FF1FA4
:100350000000000000E400E05FE400E008ED00E0E1
:100360000050064000400640448004400000030165
:1003700004800440C010050014E000E0FF76010096
:100380000000202054EEB65E1CE00340A5C3945A42
:1003900000F00740FFFFFFFFFFFFFFFFFFFFFFFF32
:1003A000FFFFFFFFFFFFFFFFFFFFFFFFFFFFFFFF5D
:1003B000FFFFFFFFFFFFFFFFFFFFFFFFFFFFFFFF4D
:1003C000FFFFFFFFFFFFFFFFFFFFFFFFFFFFFFFF3D
:1003D000FFFFFFFFFFFFFFFFFFFFFFFFFFFFFFFF2D
:1003E000FFFFFFFFFFFFFFFFFFFFFFFFFFFFFFFF1D
:1003F000FFFFFFFFFFFFFFFFFFFFFFFFFFFFFFFF0D
:10040000FFFFFFFFFFFFFFFFFFFFFFFFDEF9FFFF23
:1004100010B5054C237833B9044B13B10448AFF33E
:1004200000800123237010BD4894FF1F00000000CE
:1004300090770100084B10B51BB108490848AFF38D
:1004400000800848036803B910BD074B002BFBD0A0
:10045000BDE81040184700BF000000004C94FF1F8B
:10046000907701004894FF1F0000000038B502217A
:10047000122001F03FFE0221132001F03BFE40F666
:10048000C41001F05FFE132001F026FE08B9012020
:1004900038BD122001F020FE142570BB002113206E
:1004A00001F028FE4FF4A0740121132001F022FE78
:1004B0002346013BFDD10021132001F01BFE022148
:1004C000132001F017FE013CFDD1132001F004FEC2
:1004D000142450B9642001F035FE132001F0FCFD16
:1004E00018B9013CF6D1022038BD122001F0F4FD0C
:1004F00018B9013DD2D1032038BD0021122001F0EE
:10050000F9FD4FF4A0740121122001F0F3FD234600
:10051000013BFDD10021122001F0ECFD022112204F
:1005200001F0E8FD013CFDD10021122001F0E2FDC7
:100530000021132001F0DEFD002038BD70B5134C02
:100540004B0001250E462046114684F83B3084F8C6
:100550005E5084F85D5001F043F80021204601F020
:10056000FFF92B462A463146204601F083FA94F8DB
:10057000383094F839209A4205D9E2182B4484F88F
:100580003830107E70BDFF2070BD00BF2888FF1F6F
:10059000F8B50C4C1E4601254F002046114684F844
:1005A0003B7084F85E5084F85D5001F019F83146D4
:1005B000204601F015F829462046BDE8F84001F034
:1005C000CFB900BF2888FF1F10B50446FFF74EFFC4
:1005D00030B14A21174802F0CDFD174802F0C6FF9E
:1005E000FA2001F0AFFD154801F00EF81449134848
:1005F00001F054F8204601231A226821FFF7C8FFB2
:10060000204601231D226821FFF7C2FF2046182340
:100610001B226821FFF7BCFF204618231C226821FB
:10062000FFF7B6FF2046022337226821BDE81040BD
:10063000FFF7AEBF98890000E889FF1F2888FF1FD9
:10064000801A06002DE9F0411B4C069D4FEA410E31
:1006500001260F4620461146984684F83BE084F870
:100660005E6084F85D6000F0BBFF3146204601F01B
:1006700077F9334642463946204601F0FBF994F8B3
:10068000392094F838309A4213D00021E6189A4263
:10069000C8B203F101038ABF84F83830FF23337EE8
:1006A0002B5494F8392094F838309A4201F1010122
:1006B000ECD1BDE8F08100BF2888FF1FFFFFFFFFDE
:1006C000F0B53A2287B068210446FFF737FF10F0F3
:1006D000010003D10346184607B0F0BD02AB0093FA
:1006E00020460E233B226821FFF7ACFF9DF809103E
:1006F0009DF808009DF80B209DF80D309DF80A60CC
:100700009DF80C5041EA002000B242EA062643EA76
:10071000052503F0ADFC2AA3D3E9002303F00EFD69
:1007200036B2C4E90601304603F0A2FC24A3D3E9A3
:10073000002303F003FD2DB2C4E90801284603F0AD
:1007400097FC1FA3D3E9002303F0F8FC9DF810E009
:100750009DF811709DF813209DF815309DF81260DA
:100760009DF8145047EA0E27C4E90A0138B242EA5C
:10077000062643EA052503F07BFC13A3D3E90023F7
:1007800003F0DCFC36B2C4E90001304603F070FC33
:100790000DA3D3E9002303F0D1FC2DB2C4E902017B
:1007A000284603F065FC08A3D3E9002303F0C6FC48
:1007B0000123C4E90401184607B0F0BDAFF300807F
:1007C000A2F4507A289D733FFA007D803E40AF3FEF
:1007D0002DE9F041002104461F46164660229DF88F
:1007E000188004F0E3FA00220023C4E93E6704F510
:1007F000807104F588762D4F4FF0000EC4E9182360
:10080000C4E91A23C4E91C23C4E91E23C4E9202334
:10081000C4E92223C4E92423C4E92623C4E9282304
:10082000C4E92A23C4E92C23C4E92E23C4E93023D4
:10083000C4E93223C4E93423C4E93623C4E93823A4
:10084000C4E93A23C4E93C2304F58C75C1E90023CB
:1008500004F59070C4F80CE184F808812146C6E9DB
:1008600000230026C5E90023C0E90023E1E94A6727
:1008700004F5AC70C1E90223C1E90423C1E90623F0
:1008800004F5A47E214604F5A875CEE90023C5E948
:100890000023C0E90023E1E958672046C1E90223AB
:1008A000C1E90423C1E90623BDE8F0810000F03F5F
:1008B000FFF78ABE704700BF30B400F188030839E3
:1008C000A030F1E90245E3E902458342F9D130BCA9
:1008D000704700BFF0B40022002300F5887600F5D1
:1008E0008C75C6E9002300F59074C5E90023194D05
:1008F000C4E9002300F594710024C1E9004500F526
:10090000987700F59C7600F5A071C7E90023C6E949
:10091000002300F5A477C1E9002300F5A87600F5CF
:10092000AC71C7E90023C6E9002300F5B077C1E93F
:10093000002300F5B47600F5B87100F5BC70C7E986
:100940000045C6E90023C1E90023F0BCC0E900234B
:10095000704700BF0000F03F2DE9F04781461EA11F
:10096000D1E90001D9F80C811D4D09F58073C3E967
:1009700000014FEA880605EB060A09F1580709F15C
:1009800070045AF8040B03F085FBE7E90201A74263
:10099000F7D10C36354409F1880655F8040B03F0FD
:1009A00079FBE4E90201B442F7D10E4808F10603ED
:1009B00083FB00011944DA17C2EB61324FF467512F
:1009C00001FB1233C9F80C310120BDE8F04701F0FA
:1009D000B9BB00BFAFF30080000000E04D62603F94
:1009E000E48900000352DA8D2DE9F0418046FFF7DB
:1009F00067FEB8B1D8E90045D8E90223D8E9046711
:100A0000C8E91845C8E91A23D8E90645D8E90823F2
:100A1000C8E91C67D8E90A67C8E91E45C8E9202368
:100A2000C8E92267BDE8F08110B590F808411CB90B
:100A3000BDE81040FFF7D8BFFFF78EFF204610BD7E
:100A40002DE9D043124C0FF24009D9E90089204624
:100A500002F08CFD0026002742464B4620460D49F9
:100A600002F09CFD32463B460B49204602F096FDC3
:100A7000204602F07BFD42464B4630463946BDE8F3
:100A8000D04300F0ADBB00BF000000A077F31140E1
:100A9000E889FF1FE4700100FC700100FFFFFFFF09
:100AA0002DE9F04348A3D3E9002393B048A5D5E945
:100AB000004549A7D7E90067CDE9062348A3D3E954
:100AC000002349A1D1E900010FF22419D9E90089D5
:100AD000CDE90245CDE90E67474C484FCDE91023DB
:100AE000474BCDE90A0100221F214FF080464548BF
:100AF0000225CDE90823CDE90467CDE90C89424EF2
:100B000002F038FB204602F031FDDDE90A230095B2
:100B1000204602F091FD0121304602F02BFBDDE979
:100B20000C230095204602F087FD0121304602F09B
:100B300021FBDDE90E230095204602F07DFD012119
:100B4000304602F017FBDDE910230095204602F045
:100B500073FD204602F00AFD0D212C4802F00AFB2D
:100B6000204602F003FDDDE902230095204602F055
:100B700063FD0121304602F0FDFADDE90423009512
:100B8000204602F059FD0121304602F0F3FADDE97A
:100B900006230095204602F04FFD0121304602F069
:100BA000E9FADDE908230095204602F045FD2046DC
:100BB00002F0DCFC204602F0D9FC0AA902A800F0F1
:100BC00027FB13B0BDE8F083000000C0CCCC004090
:100BD000000000606666024000000060B6F2DD3F83
:100BE000000000A03A64E53F000000E07066E03FCE
:100BF000000000C0FB1CD13FE889FF1F3333F33FE7
:100C000000000840107101003C71010030710100CA
:100C10002DE9F0434AA1D1E900014BA7D7E90067CC
:100C20004BA3D3E9002393B04BA5D5E90045CDE90B
:100C300002014BA1D1E90001CDE90467CDE9082308
:100C400049A7D7E900674AA3D3E900230FF228197F
:100C5000D9E90089CDE90645494CCDE90A011C21B5
:100C600048480225CDE91023CDE90E67CDE90C896E
:100C7000454E02F07FFA204602F078FCDDE90A23B7
:100C80000095204602F0D8FC0121304602F072FAAD
:100C9000DDE90C230095204602F0CEFC0121304610
:100CA00002F068FADDE90E230095204602F0C4FC4C
:100CB0000121304602F05EFADDE91023009520465E
:100CC00002F0BAFC204602F051FC0D212F4802F040
:100CD00051FA204602F04AFCDDE902230095204645
:100CE00002F0AAFC0121304602F044FADDE90423B7
:100CF0000095204602F0A0FC0121304602F03AFAAD
:100D0000DDE906230095204602F096FC01213046DD
:100D100002F030FADDE908230095204602F08CFC51
:100D2000204602F023FC204602F020FC0AA902A87B
:100D300000F06EFA13B0BDE8F08300BFAFF300809F
:100D4000000000A0999909400000006066660A4012
:100D5000000000A09999B93F000000C0CCCC14401D
:100D600000000020C500B13F000000203CA1BBBF37
:100D700000000000B00161BF000000E0C188B1BF09
:100D8000E889FF1F407101003C71010030710100D2
:100D90002DE9F04346A7D7E9006747A1D1E9000153
:100DA00047A3D3E9002393B00FF21C19D9E90089B6
:100DB000474CCDE90E67474FCDE90A01CDE9102335
:100DC000202100220023002643480225CDE90423E8
:100DD000CDE90623CDE90823CDE90267CDE90C89E9
:100DE0003E4E02F0C7F9204602F0C0FBDDE90A23BF
:100DF0000095204602F020FC0121304602F0BAF9AD
:100E0000DDE90C230095204602F016FC0121304656
:100E100002F0B0F9DDE90E230095204602F00CFC4B
:100E20000121304602F0A6F9DDE9102300952046A5
:100E300002F002FC204602F099FB0D21284802F046
:100E400099F9204602F092FBDDE902230095204645
:100E500002F0F2FB0121304602F08CF9DDE90423B7
:100E60000095204602F0E8FB0121304602F082F9AD
:100E7000DDE906230095204602F0DEFB0121304625
:100E800002F078F9DDE908230095204602F0D4FB52
:100E9000204602F06BFB204602F068FB0AA902A87C
:100EA00000F0B6F913B0BDE8F08300BFAFF30080E7
:100EB00000000020151B833F00000040C1FEEF3FF3
:100EC000000000A05CA88C3F000000008F1A733F58
:100ED000E889FF1F0000F03F607101003C710100D4
:100EE00030710100FFFFFFFF2DE9F04346A7D7E96E
:100EF000006747A1D1E9000147A3D3E9002393B0DC
:100F00000FF21C19D9E90089474CCDE90E67474F0C
:100F1000CDE90A01CDE910231F210022002300267C
:100F200043480225CDE90423CDE90623CDE9082372
:100F3000CDE90267CDE90C893E4E02F01BF920464F
:100F400002F014FBDDE90A230095204602F074FB51
:100F50000121304602F00EF9DDE90C230095204610
:100F600002F06AFB0121304602F004F9DDE90E23AC
:100F70000095204602F060FB0121304602F0FAF8AD
:100F8000DDE910230095204602F056FB204602F0D2
:100F9000EDFA0D21284802F0EDF8204602F0E6FABD
:100FA000DDE902230095204602F046FB0121304690
:100FB00002F0E0F8DDE904230095204602F03CFB56
:100FC0000121304602F0D6F8DDE9062300952046DF
:100FD00002F032FB0121304602F0CCF8DDE90823B3
:100FE0000095204602F028FB204602F0BFFA20467A
:100FF00002F0BCFA0AA902A800F00AF913B0BDE891
:10100000F08300BFAFF30080000000E0FCDBDEBF38
:10101000000000E09F27E73F0000004032ABD43FD4
:10102000000000003EEAD73FE889FF1F0000F03FC4
:10103000847101003C71010030710100FFFFFFFF6E
:101040002DE9F04346A7D7E9006747A1D1E90001A0
:1010500047A3D3E9002393B00FF21C19D9E9008903
:10106000474CCDE90E67474FCDE90A01CDE9102382
:101070001F2100220023002643480225CDE9042336
:10108000CDE90623CDE90823CDE90267CDE90C8936
:101090003E4E02F06FF8204602F068FADDE90A23BE
:1010A0000095204602F0C8FA0121304602F062F8AD
:1010B000DDE90C230095204602F0BEFA01213046FE
:1010C00002F058F8DDE90E230095204602F0B4FA4C
:1010D0000121304602F04EF8DDE91023009520464C
:1010E00002F0AAFA204602F041FA0D21284802F047
:1010F00041F8204602F03AFADDE902230095204645
:1011000002F09AFA0121304602F034F8DDE90423B6
:101110000095204602F090FA0121304602F02AF8AC
:10112000DDE906230095204602F086FA01213046CB
:1011300002F020F8DDE908230095204602F07CFA51
:10114000204602F013FA204602F010FA0AA902A87B
:1011500000F05EF813B0BDE8F08300BFAFF300808D
:10116000000000E0E104E83F000000E07066E03FBE
:10117000000000E06C01D9BF000000001DADC2BF3F
:10118000E889FF1F0000F03F847101003C710100FD
:101190003071010038B50E4D0E49284602F0FEF9B7
:1011A000FFF74EFC0446FFF77BFC0444FFF730FDDD
:1011B0000444FFF7EDFD0444FFF796FE0444FFF7F7
:1011C0003FFF054902192846BDE8384002F0E6B95C
:1011D000E889FF1FA4710100BC710100FFFFFFFF40
:1011E00008B502F0F7FD21F00043194606A3D3E944
:1011F000002303F01FFA10B90346D8B208BD4FF020
:101200000103D8B208BD00BF00000080B5F8E43E7D
:1012100070B5A1F10805A0F1080400F11806F5E980
:101220000223F4E9020102F0D5FD21F00043194642
:1012300005A3D3E9002303F0FDF910B1B442EED1C8
:10124000012070BDAFF3008000000080B5F8E43EDF
:1012500008B5134B1B78D3B91248FFF729FB124B83
:101260001B7843B911490F48FFF726FB00F048FFF0
:101270000F4B186008BD0F490F4802F08FF909485D
:10128000FFF718FB00F03CFF094B186008BD4FF456
:101290007A7000F057FFBDE80840FFF77BBF00BF42
:1012A000F895FF1F7894FF1F1888FF1F0088FF1F05
:1012B0006494FF1FD0710100E889FF1F2DE9F043FE
:1012C00087B001F02DFF40BB864B1B7813BB864CCB
:1012D0002568002D34D0854D2846FFF7A5FBC8B101
:1012E000834923680A68012B02F101020A6000F0B9
:1012F000C280022B76D0032B00F0D280042B00F0AA
:10130000DE80052B00F09C80052007B0BDE8F0438F
:1013100000F018BF07B0BDE8F08301F0C5FEA0F1F2
:101320003003052B5BD9722800F0D8806228CBD11E
:101330007049714802F032F96C48FFF7BBFAC3E715
:101340006E4F00F0DDFE3B686D4AC31A9342804643
:10135000C1D9DFF89C91654ED9F8002069496648EB
:1013600002F01CF9D6E92801D6E92423CDE90201CF
:10137000D6E92601CDE90001C9F80050C7F8008080
:1013800061495D4802F00AF9D6E92E01D6E92C89B7
:10139000D6E92A23CDE90201CDE900895B49564807
:1013A00002F0FCF8D6E93401D6E93289D6E93023D7
:1013B000CDE90201CDE9008955494F4802F0EEF828
:1013C000D6E93A01D6E93623D6E93867CDE90201F4
:1013D000CDE900674F49484802F0E0F87BE7424A10
:1013E000136071E705F5A07005F59C7105F5987619
:1013F000D0E90089D6E90067D1E9000105F59473C9
:10140000D3E90023CDE90201CDE9006742493A481A
:10141000CDE9048902F0C2F805F5A87405F5AC71B0
:10142000D1E90001D4E9006705F5A473D3E90023ED
:10143000CDE90201CDE9006738492F4802F0AEF846
:1014400005F5B47805F5BC7005F5B871D8E9006705
:1014500005F5B073D0E90045D1E90001D3E90023D7
:10146000CDE90201CDE90445CDE900672C492248C8
:1014700002F094F848E705F58C7805F5907105F5CC
:101480008873D1E90045D8E90001D3E90023CDE90B
:101490000001CDE902452349174802F07FF833E700
:1014A000D5E91C01D5E91823D5E91A45CDE9020192
:1014B000CDE900451C49104802F070F824E7D5E951
:1014C0002201D5E91E23D5E92045CDE90201CDE968
:1014D00000451649084802F061F815E70348FFF790
:1014E000F9F9F1E6F895FF1F6894FF1F7894FF1F44
:1014F0006C94FF1FD0710100E889FF1F6494FF1FE7
:1015000040420F00E0710100F07101000C72010017
:10151000287201004472010078720100907201008B
:10152000A472010060720100BC720100D47201005B
:1015300000B5064A064B1278064883B00092D3E9FC
:101540000023FFF745F903B05DF804FB7094FF1F1B
:101550002088FF1F7894FF1F0020704790F83920E3
:1015600090F83800101A704790F8383090F8392009
:101570009A4205D95A1C034480F83820187E7047D7
:101580004FF0FF30704700BF90F8383090F83920A6
:101590009A4286BF1B18187E4FF0FF30704700BF7D
:1015A000704700BF38B50546B0F85E0090B195F8B9
:1015B0005D301446C3F1210294420CD805F13B0082
:1015C0001844224600F070FB95F85D30234485F8FE
:1015D0005D30204638BD012014462871EEE700BF7B
:1015E000B0F85E306BB190F85D30202B07D8C21890
:1015F000013380F85D30012082F83B1070470123F1
:1016000003710020704700BF0023426980F8383022
:1016100080F8393080F85C3080F85D3080F85E30DA
:1016200080F85F3006CA30B40D68046943662A4307
:1016300083660A60A370426990F8613016491468A5
:1016400013441D7A5B7B01EBC5051B026D6803F437
:10165000E06343F064032B6090F8623013449D7C98
:10166000DB7D01EBC5011B02496803F4E06343F035
:1016700064030B6021685368194205D0036927226F
:101680005A70036904229A71036920225A7103690E
:1016900080229A7030BC70475073010043690CCBB4
:1016A00012681A420CD0094B99420AD9084B994248
:1016B000036994BF1A220D225A70036904229A7199
:1016C0007047036927225A70F7E700BF7F1A0600A8
:1016D0003F420F0010B50269D378DBB2D906044649
:1016E0003DD510215806D17038D503F0040303F01E
:1016F000FF02002B51D03D49626E00230B7084F82D
:101700005D30002A5BD0904794F85D30002B56D0B6
:101710002369D0229A70236994F83B201A712369B7
:10172000012284F85C200222DA7010BD304B84F86C
:1017300060009C424AD02F4B9C4252D094F8391002
:1017400013791F29DBB207D82848007820B1601828
:10175000013184F8391003760223D37010BD590685
:10176000C3D4917801F0100101F0FF000029DDD011
:1017700013F001031ED194F85C1094F85D008842C8
:1017800081BF4B1C091984F85C3091F83B30137110
:101790002369D0229A702269DEE7236984F8392010
:1017A000C0229A702369114A19790121117002220D
:1017B000DA7010BDC023937022691379CCE701223F
:1017C000002384F85D2084F83B30A1E7626994F837
:1017D0006130094913440322187A00F0A5FB2269FD
:1017E000ACE7626994F861300449F3E7F995FF1FAB
:1017F0002888FF1F9488FF1F5D18000069180000EB
:101800000369DB7803F0200373B190F86030013393
:10181000DBB2012B80F860301AD9426990F8613050
:101820001344187A00F0FCBB70B5426903F0FF0561
:1018300090F8613013440446187A00F0F1FBA36E6F
:101840005BB184F8385094F83900BDE8704018470F
:1018500090F85F30002BE0D0704770BD0148FFF773
:10186000CFBF00BF2888FF1F0148FFF7C9BF00BFD7
:101870009488FF1F2DE9F047374FDFF8E0903B6871
:10188000026982B006460093DDF800800021A025A1
:10189000D3789B065BD53B680193019BC8EB0303A0
:1018A0000F2BF5D949B1102BF2D00020907033697D
:1018B00080229A7002B0BDE8F087726996F86130B4
:1018C00013440521187A00F015FC726996F861300E
:1018D0001344012193F812A0504600F00BFC092498
:1018E0000021504600F0F2FB2B46013BFDD10121C7
:1018F000504600F0EBFB2B46013BFDD1013CEFD104
:10190000706996F8611001444FF4A0720C7A4B7B19
:1019100009EBC4011B02496803F4E06343F064036C
:101920000B6096F862300344997CDB7D09EBC101C2
:101930001B02496803F4E06343F064030B60013A5F
:10194000FDD13269D3789B064FF00101A3D4012069
:1019500002B0BDE8F08700BFFC95FF1F5073010087
:10196000F0B503691222DA700269937803F020035C
:1019700085B004460D46002B5ED0B42393703C49DD
:1019800022690B680093009E05E00B680193019BA0
:101990009B1B042B42D8D37803F0200303F0FF00F5
:1019A000002BF2D094F85D30002B31D04FF0000EB8
:1019B0004FF0020C04EB0E0393F83B3013710B68ED
:1019C0000393039F206907E09B060DD50B680293E4
:1019D000029BDB1B052B28D8C378DBB203F0020285
:1019E00002F0FF06002AEFD080F803C02669F378E2
:1019F000DBB2DF0632462DD49F062BD5DB0731D470
:101A00000EF1010E94F85D305FFA8EFE7345D1D869
:101A100000201DBB002384F85E3004E09070236931
:101A200080229A70042005B0F0BD86702369802260
:101A300004209A7005B0F0BD03F0FF06FFF71AFF0F
:101A400010B9042005B0F0BD236984F85F60B022AE
:101A50009A7094E78023B3700420DAE72669802324
:101A6000B370D7E7BEF1000F0CBF02200320F6E7EA
:101A7000FC95FF1F2DE9F04106690025122780F82B
:101A8000385080F83950F770D0F810C09CF802E058
:101A90000EF0200E88B00446884615461E46BEF15C
:101AA000000F49D0B4238CF80230784B21691A68B2
:101AB0000092DDF800E006E01A6801920198CEEB92
:101AC0000000042830D8C87800F0200000F0FF079C
:101AD0000028F1D04FEA480242F00102D2B20A7166
:101AE0001A680292DDF808E0206906E01A6803929D
:101AF0000399CEEB010105292AD8C17801F0020132
:101B000001F0FF070029F1D04FF0020C80F803C06C
:101B10002269D17811F0110722D12DBB002E0CBF04
:101B2000A0238023937003E08F70236980229A7032
:101B3000384608B0BDE8F0810EF0FF07FFF79AFEC7
:101B40000028F5D0236984F85F70B0229A70ACE762
:101B500087702369802238469A7008B0BDE8F0810A
:101B6000802393700027E3E7012D75D0A0219170A9
:101B700021690A79BE4667464FF0A80C1A6804929C
:101B8000049805E01A680592059A121A052A4AD89F
:101B9000CA7802F0020202F0FF08002AF2D0CF70E9
:101BA0002169CA78D2B212F0100F08465AD19206B3
:101BB00058D5013DEDB2012D49D0BEF11F0F3BD9E3
:101BC0000A79012DDAD11A680692069D05E01A6895
:101BD0000792079A521B052A46D8C27802F00202E1
:101BE00002F0FF01002AF2D00223C3702269D378E9
:101BF000DBB2D9063AD49B0634D5B023BEF11F0F11
:101C000093703FD8226904EB0E0312791A760EF115
:101C1000010E5FFA8EFE16B1236980229A7084F855
:101C200039E0774684E781F80280236980229A7040
:101C3000774684F839E07BE704EB0E0291F80480E4
:101C400082F818800EF1010E5FFA8EFEB9E781F876
:101C500002C021690846B0E7A82191702069BE46FC
:101C60000279B0E7774663E78170DEE71021A023B1
:101C7000D170013BFDD12269937803F0F7037746D9
:101C8000937055E723691B79C5E700BFFC95FF1FDB
:101C90000148FFF71FBD00BF2888FF1F0148FFF75D
:101CA00019BD00BF9488FF1F844641EA000313F06A
:101CB00003036DD1403A41D351F8043B40F8043B53
:101CC00051F8043B40F8043B51F8043B40F8043B16
:101CD00051F8043B40F8043B51F8043B40F8043B06
:101CE00051F8043B40F8043B51F8043B40F8043BF6
:101CF00051F8043B40F8043B51F8043B40F8043BE6
:101D000051F8043B40F8043B51F8043B40F8043BD5
:101D100051F8043B40F8043B51F8043B40F8043BC5
:101D200051F8043B40F8043B51F8043B40F8043BB5
:101D300051F8043B40F8043B403ABDD2303211D355
:101D400051F8043B40F8043B51F8043B40F8043B95
:101D500051F8043B40F8043B51F8043B40F8043B85
:101D6000103AEDD20C3205D351F8043B40F8043B55
:101D7000043AF9D2043208D0D2071CBF11F8013B53
:101D800000F8013B01D30B8803806046704700BF19
:101D9000082A13D38B078DD010F003038AD0C3F128
:101DA0000403D21ADB071CBF11F8013B00F8013B0A
:101DB00080D331F8023B20F8023B7BE7043AD9D3C9
:101DC000013A11F8013B00F8013BF9D20B7803709E
:101DD0004B7843708B7883706046704708B5104C21
:101DE00008E0236859050DD423681A050FD4236829
:101DF000DB0411D423685803F3D500F03BFB2368C0
:101E00005905F1D501F002FE23681A05EFD501F05E
:101E100093FE2368DB04EDD501F024FFEAE700BF61
:101E20003480044008B5FFF7D9FF00BF014B1022F2
:101E30001A80704700200540704700BF094908B567
:101E40000B6830B16A461844A2F58052904202D223
:101E50000860184608BD02F041FC0C2303604FF0F7
:101E6000FF3008BD0089FF1F704700BF10B40F4B43
:101E700053F8302092F880422CB1012369B182F8E6
:101E8000803010BC704703EBC0035B681A6841B92F
:101E900022F002021A6010BC704782F8003110BCB8
:101EA000704742F003021A6010BC70475073010083
:101EB0001C4A02EBC00301295B6811D004291BD026
:101EC00052F83000002280F8802229B1022920D067
:101ED000032922D01A6070474FF480721A6070474D
:101EE00052F830004FF4A27280F880121A601A681B
:101EF00022F020021A60704752F830104FF4A2729C
:101F0000012081F880021A601A6842F020021A60EB
:101F1000704740F203121A6070474FF481721A60E2
:101F2000704700BF50730100212848D8F8B5042A33
:101F300044D8DFE802F0484B4E0345004FF410262A
:101F40002B4B03EBC0030D465C68216811F4E06184
:101F500048D0284B284A2949C3F89C2104F1404223
:101F60002748C3F8A411A2F59221264FC3F8A00177
:101F70007C292548C3F8A871C3F8AC012CD9A2F577
:101F800094237C2B2AD9A2F596237C2B28D9A2F561
:101F900098237C2B29D9A2F59A227C2A27D81B4882
:101FA00072B6236823F4702343F08072C4F3840173
:101FB0001643236040F82150266062B6F8BD704792
:101FC0004FF43026BCE74FF40026B9E74FF4402623
:101FD000B6E74FF42026B3E70D48E1E70D48DFE709
:101FE0000D48DDE7FFF764FFB3E70C48D8E7F8BD1D
:101FF000507301000082FF1FD187FF1F7987FF1FE9
:10200000A587FF1F4D87FF1F2187FF1FDC89FF1F4B
:102010000489FF1F3C89FF1F8C89FF1FBC89FF1F9C
:102020001A4B03EBC00010B4426802F14043A3F521
:1020300092217C2923D9A3F594217C290DD9A3F5DC
:1020400096217C291FD9A3F598217C2919D9A3F5BC
:102050009A237C2B11D80E4C00E00E4C72B61368FC
:102060000D4823F08773C2F3840123F4803343F0D7
:102070008073136044F8210062B610BC7047074CAF
:10208000ECE7074CEAE7074CE8E700BF50730100B4
:10209000DC89FF1F3C89FF1F691E00000489FF1FA8
:1020A000BC89FF1F8C89FF1F30B4054B054D064CC2
:1020B000002210211A602A602060196030BC70472D
:1020C00014D0034004D0034000D00340212801D89D
:1020D000FFF7CCBE704700BF212806D8044B53F849
:1020E000303093F80002C0B270470020704700BF44
:1020F00050730100212801D8FFF7DABE704700BFF6
:1021000072B60C490C4B0D4A1B680868126862B61F
:10211000520102D5322B88BF01300949C3F5BB33C8
:102120004FF47A72FF33A1FB031302FB00F000EBC4
:1021300093107047FC95FF1F18E000E004ED00E0ED
:10214000ABAAAAAA2DE9F843054672B6204F214B47
:10215000214A1B683C68126862B6520102D5322BD4
:1021600088BF013495B3C3F5BB331C4EDFF86490D0
:10217000DFF86480FF334FF47A72A6FB031302FB8F
:1021800004F404EB931472B6D9F800103A68D8F846
:1021900000E062B6C1F5BB33FF33A6FB03031EF0BC
:1021A000806FC4EB93134FF47A7002D0322988BF4A
:1021B000013200FB0233B3F57A7F04D3013D05D031
:1021C00004F57A74DFE701F02DFBDCE7BDE8F88366
:1021D000FC95FF1F18E000E004ED00E0ABAAAAAAFE
:1021E000F8B52D4B2D49DFF8D0E0DFF8D0C02C4EEC
:1021F0002C4D2D4C2D4A2E4F4FF4000018604FF0FF
:10220000807018604FF0007018604FF080601860A8
:102210004FF0006018600020086028234BF6FF7123
:10222000CCF80010CEF80030336013602B602360D0
:102230003B60B3629362092245F8242CC4F8D80F9E
:1022400005F57F65C7F8D41F07F5FF2707F5FA677F
:10225000C6F8F83F2B6006F5FF26C4F8D42F05F525
:10226000FD2504F5FF24386006F2F476114831604C
:1022700005F5FF6504F5FD642B602360026001F045
:102280001FFB1920FFF75EFF00F05CFE40F2131009
:10229000BDE8F840FFF756BF08E100E004800340C6
:1022A00014800340248003402C8003401C800340A2
:1022B0003480034000800B400C80034008800340C2
:1022C000431E032B14D872B60A4951F8230068B193
:1022D00070B4094C058834F81320466841F823602F
:1022E000521B24F8132062B670BC704762B6704768
:1022F000002070475896FF1FDC98FF1F0138032805
:102300000BD872B6074B53F8203043B100205B68FE
:102310000130002BFBD162B6704700207047184691
:10232000F9E700BFAC96FF1F30B472B62B4A1378A2
:102330001D0706D52A4B196A002936D0996A00294B
:1023400041D053781C0706D5254B196C00293ED087
:10235000996C002939D09378190705D5204B196E4F
:10236000002936D0996E89B1D3781B0707D51C4B4D
:10237000D3F880207AB3D3F8882011213AB162B61D
:10238000184B00221A7030BC00F068BE0D21154CAD
:10239000154D227843F8315003EBC1030830013A60
:1023A0005860227062B630BC704704220D4C0F4D4D
:1023B000217843F8325003EBC20308304A1E5860BC
:1023C000227062B6EFE70521E1E70921DFE7082285
:1023D000ECE70C22EAE71022E8E700BF987401005E
:1023E0000080FF1FD596FF1FC800400088004000F6
:1023F000431E032B1DD81B4A400140F0100030B48F
:10240000104472B6184CE25C032A1BD8DFE802F0D5
:102410000212151703220D88E25410F0080F14BFA2
:10242000C823882343EA054308310360416062B64C
:1024300030BC704708300222EDE70522EBE7083098
:102440000422E8E7094A52F8230038B1084A52F852
:102450002300416042F8231062B6E9E742F82310F6
:10246000034AF7E70080FF1FE496FF1FAC96FF1FAB
:10247000BC96FF1F2DE9F04FDFF80CB3DFF80CA37B
:1024800087B044E0AB4F4FEA930807EBC809013E21
:10249000D9F8042003F00803F6B2A2F1080003F013
:1024A000FF04002B40F0028157F838301B0C99B222
:1024B00022F8081C002B00F0F0809F4B22F8064CFD
:1024C00042F8044C53F82620002A00F0C5829B4DA8
:1024D00055F8263058609A4C45F8260034F81630E6
:1024E000194424F8161000F099FD002800F0AD8280
:1024F000944A954B19F0080F00F1080018BF1346D5
:10250000C9F8040047F8383008238BF800309BF8EE
:102510000040E4B261071AD58C4B1B78A3B18C49FB
:102520000A7802F0FF0322B1013BDBB20B7003B962
:1025300000BE88490A7802F0FF032AB1013BDBB2F2
:102540000B70002B00F0578204238BF8003004F04E
:10255000080303F0FF02002B00F0CC809AF8003053
:10256000DBB21E098ED19C08DFF8C89159F83420DF
:1025700009EBC401C2F38302013A49680C2A00F254
:102580008880DFE802F07C7C8686868686864786A1
:10259000868607000868704D4A68704F704E286044
:1025A00081B240F28160674B6A604FF0010E0022F9
:1025B000814249F834303A60C9F81020C9F818202F
:1025C00086F800E05B4C00F2E380B1F5D06F80F05C
:1025D0004683B1F5817F00F0FC8200F28D82802974
:1025E00000F07783822940F0FA82A98801F07F0108
:1025F000042900F2F4825B485B4C89000844227095
:1026000062700278930740F1588484F800E04FF03C
:10261000020E42E3514F3A6832B3544B504E544984
:10262000188834780D784028864645F0020828BF7F
:102630004FF0400E002C84F001043470CEEB00000B
:102640000CBF8824C82409EBC80680B285F00105B8
:1026500044EA0E447260188049F8384072440D70A4
:10266000002800F045813A603B4B1A88B2F5A06F14
:102670000FD100219A7859703E4B1A7009E0364A02
:10268000108842F22102904200F037812D4A49F829
:102690003420394A0123137036E72A4A2A4B19F0AD
:1026A000080F18BF134647F838302DE700F0D6FC66
:1026B000324A334952F82630002B00F0D181586855
:1026C0008C5D42F8260003F10802C9F80420032CAF
:1026D00005D8DFE804F02C02292602228A551A8840
:1026E00019F0080F0CBF8823C82343EA024347F8B8
:1026F000383009E7E00700F18181210600F1F2811D
:10270000A20706D51F4A204913780220DBB21370B6
:102710000870E30602D51C4B10221A7007B0BDE802
:10272000F08F04228A55DAE705228A55D7E703227B
:102730008A55D4E70080FF1F5896FF1F0496FF1F9D
:10274000DC98FF1FC800400088004000E096FF1F93
:102750006996FF1FE896FF1FCC96FF1F0096FF1F8C
:102760006896FF1FC0200740D896FF1F1496FF1FD2
:10277000D496FF1F9820074094200740AC96FF1F77
:10278000E496FF1F882007408020074090200740E4
:1027900042F22100814200F02A8100F2D880B1F596
:1027A000086F00F07682B1F5106F40F01882226A4F
:1027B000B349A8780870120600F13A83D9F82820A6
:1027C000B049130600F10C83D9F83020AD49150645
:1027D00000F10183D9F83820AA49140600F1F682E5
:1027E000D9F84020A749100600F14A83D9F84820BB
:1027F000A449120600F13F83D9F85020A1491306DD
:1028000000F13483D9F858209E49150600F1298338
:10281000D9F860209B49140600F11E83D9F868207E
:102820009849100600F11383D9F8702095491206D3
:1028300000F10883D9F878209249130600F1FD824F
:10284000D9F880208F49150600F13183D9F8882006
:102850008C49140600F12583D9F890208949100687
:1028600000F11983D9F898208649120600F10D83EA
:102870008548864A864901908648874D874C04974B
:1028800000230596029580460F4616461D46039482
:10289000306828B1446800F0E1FB2046002CF9D1F3
:1028A00000233360029B38681A46002342F8253023
:1028B00028B1446800F0D2FB2046002CF9D1002258
:1028C0003A60019A98F800301146002241F8042B32
:1028D000039A0191023B4FF0000122F81510032BDF
:1028E00000F22B81DFE813F0700125017001250152
:1028F000BEF1400F18BF0022B5E6694A0D7848784E
:10290000157050708D78C8789570D07010680D79FA
:10291000157186284D7989795571917100F09B81E7
:102920006049614E0A78307882F00105002842F053
:1029300002020D700CBF8821C82149F8321009EB42
:10294000C20280F001000021307051609EE642F228
:102950002120814240F0CB81544B554C5549A878F9
:102960001D682560CDF804E00870002002908046C4
:10297000844604464B490D7845F0020E09EBCE0320
:102980000393019B002B039B5C600CBF8824C8242D
:1029900044EA080385F0010449F83E3032700C70B7
:1029A000DFF8E0E0404BDFF8FC80002840F01E81BB
:1029B000BCF1400F1BD144F0020C09EBCC03029C8C
:1029C000DFF8C0E05C60002A40F02681020442F09B
:1029D00088029DF804304EF83C20044433700D709A
:1029E0002346402803D10020334A3B601080334AFD
:1029F000012313704DE600F09DFCA5E5214B2F4807
:102A000028491A614FF0020E80F800E02C4F0A703E
:102A10002C49196099602C4E2C4D2D4C9A610D213A
:102A20003970FF213170DFF8B8E029702270294D2C
:102A3000294A8EF800109F27012406F8047C5D6067
:102A40000470DA6007B0BDE8F08F244A47F8380018
:102A500013780133137057E543F826000E4D3AE51D
:102A60008B5D032B00F2F08001A252F823F000BF2F
:102A700009250000092500002D2B0000272B000050
:102A8000E096FF1F0080FF1FBC96FF1F5896FF1F98
:102A9000AC96FF1FE496FF1F0496FF1FDC98FF1FF4
:102AA000E498FF1FD496FF1F6896FF1FFC95FF1F39
:102AB000EC98FF1FF896FF1F1496FF1F9420074005
:102AC000C020074088004000882007408020074041
:102AD000982007401896FF1F6C96FF1FD596FF1F82
:102AE0008C200740C149C24B80220D2008701A700B
:102AF000A2077FF50EAE05E640F20232914240F0A9
:102B0000EE80A98801F07F01042968D86A88002A2C
:102B100065D1B648CDF804E089000844017841F059
:102B20000201017021E701238B55EDE400238B5551
:102B3000EAE44FF0010388F800300135042D06F176
:102B4000040607F1040708F101087FF4A1AEA94CBF
:102B5000A94B2278A94D049F059E002129701A7067
:102B6000130700F105816278A549DFF8A0820A7099
:102B700010074FF00001C9F83010C9F8381000F103
:102B8000E080A049A2780A700021C9F85010C9F865
:102B900058101107DFF8748200F10181E2789A4938
:102BA0009A4C0A7000211207C9F87010C9F8781001
:102BB00000F1B08033780193002183F00102C9F85D
:102BC0009010C9F89810D0E64FF0000388F8003054
:102BD000B3E7A98801F07F01042940F28D80834A80
:102BE0000F2313708A4A0123137052E540287FF6A1
:102BF000E2AE44F002040EEBC401029E4E60BAB194
:102C00009DF80410834A19703346403888F8005004
:102C100040334EF83420E7E69DF804303370020468
:102C2000029B0D7042F0C80203444EF83C20D8E6E7
:102C30009DF804101970029B774A88F800504038BC
:102C400040334EF83420CFE619F0080F0CBF0223B2
:102C500003238B5558E4714A0F21117060E6704AC6
:102C60005468002CBBD06888B5F804E003E00C324F
:102C70005468002CB3D013888342F8D1538873452D
:102C8000F5D1000A03280CBF94F800E0B2F808E080
:102C900003E0644A644C12782270E888704580F042
:102CA0003F8162490D784028844645F0020E28BFD6
:102CB0004FF0400C04EB0C0309EBCE02029301230E
:102CC0005460CCEB00004FEA0C4800220193C8246A
:102CD0005EE6554C4FF0020E22706270DDE7B1F5F2
:102CE000A06F7FF47CAF0123002201933DE642F206
:102CF00021329142F7D072E76A88002A7FF46FAFE1
:102D00003A48CDF804E089000844017821F0020136
:102D100001702AE600F082F9002800F0EF80083008
:102D20003D4AC4F88400C4F8802000F077F90028F8
:102D300000F0DE800830374AC9F88C00C9F88820D6
:102D400038E700F06BF9002800F0C0800830324A04
:102D5000C8F84400C8F8402000F060F9002800F0EE
:102D6000AF8008302B4AC9F84C00C9F8482008E762
:102D700000F054F9002800F0CD800830264AC9F848
:102D80002400C9F8202000F049F9002800F0BC8098
:102D90000830204AC9F82C00C9F82820E3E600F0E2
:102DA0003DF9002800F09E8008301B4AC8F86400F6
:102DB000C8F8602000F032F9002800F08D8008305B
:102DC000144AC9F86C00C9F86820E7E6C86B0838EF
:102DD00000F044F904E5486B083800F03FF9F9E4E5
:102DE000C86A083800F03AF9EEE400BFC020074096
:102DF0008020074098740100C4200740D596FF1F2B
:102E0000C8200740CC200740D02007400080FF1F8B
:102E100094200740C8004000880040006996FF1FCA
:102E20009C740100E096FF1FD896FF1FD496FF1FE9
:102E3000606A083800F012F9C0E4C86F083800F082
:102E40000DF9FDE4486F083800F008F9F2E4C86EA7
:102E5000083800F003F9E7E4486E083800F0FEF89F
:102E6000DCE4C86D083800F0F9F8D1E4486D0838A2
:102E700000F0F4F8C6E4C86C083800F0EFF8BBE4E2
:102E8000486C083800F0EAF8B0E4D1F89C00083843
:102E900000F0E4F8ECE4D1F89400083800F0DEF833
:102EA000E0E4D1F88C00083800F0D8F8D4E4D1F888
:102EB0008400083800F0D2F8C8E44FF0020EECE6C7
:102EC0002A78C9F8480001322A705AE62A78C8F8E8
:102ED000400001322A703FE72A78C9F868000132C1
:102EE0002A705BE62A78C8F8600001322A7061E730
:102EF0002A78C9F8880001322A705BE62A78C4F87B
:102F0000800001322A7010E72A78C9F828000132BF
:102F10002A7028E62A78C9F8200001322A7032E7A0
:102F2000BEF1400FF44628BF4FF0400C04EB0C03F9
:102F300002930123CCEB0E004FEA0C4800220193D0
:102F400018E500BFF8B500F0F9FE294B29482A4CD6
:102F50002A4F2B4DDFF8BCC0DFF8BCE0294E002221
:102F60001A605A609A60DA601A615A619A61DA618D
:102F70001A625A629A62DA621A635A639A63DA636D
:102F80001A645A649A64DA641A655A659A65DA654D
:102F90001A665A669A66DA661A675A679A67DA672D
:102FA000C3F880200168C3F8842041F480210160C7
:102FB000C3F307212170C3F30740134938701B0E78
:102FC0002B70FF238CF80030104D8EF80030104825
:102FD0000B700123337084F8642070264FF4007462
:102FE000102207F82C3C2E70046081F8F820F8BD00
:102FF0000080FF1F348004409C200740B020074021
:10300000B4200740942007401020074049E400E026
:1030100008E100E0802007408820074072B60D4894
:103020000268B2FA82F30B2B10DC4FF00041D9405A
:1030300022EA0102026062B6074803EBC303DB0029
:10304000C2180021C15010465160704762B600207E
:10305000704700BFE489FF1FBC83FF1F0D4B0E4A62
:10306000C31AA2FB03231B090B2B0CD80B4A1278A3
:1030700052B972B60A484FF00041026821FA03F3D0
:103080001A43026062B67047064A1278002AF0D0EE
:10309000FFF74AB9BC83FF1F398EE338D596FF1F6F
:1030A000E489FF1FE096FF1F38B50F4D286878B1FF
:1030B00043880288C118013393420C7A02D24380BC
:1030C000204638BDFFF7CAFF002320462B6038BDDD
:1030D000064B1B782BB10320FFF7F2F8286000287D
:1030E000E6D14FF0FF3038BDF496FF1FE096FF1F8A
:1030F00010B5094C206818B143881844007A10BDF7
:10310000064B1B782BB10320FFF7DAF8206000286C
:10311000F2D14FF0FF3010BDF496FF1FE096FF1F75
:10312000044B054A1B6890881BB11A885B88D31A28
:1031300018447047F496FF1FDC98FF1F0B4B1B7859
:103140009BB110B50A4C206848B1FFF787FF0023F8
:1031500003202360FFF7B4F830B1FFF77FFF0320AF
:10316000FFF7AEF80028F8D110BD7047E096FF1FBA
:10317000F496FF1F2DE9F04FDFF8F89083B001229D
:1031800089F80020019169B3DFF8EC80364F019E89
:103190008346D8F80000B0B3344D4488C4F14001F0
:1031A000B14228BF314604EB010E00221FFA8EFE09
:1031B0002A70761AA0F802E000F1080251B1013C31
:1031C000224459441BF8014B02F8014F8B45F9D1B9
:1031D000B0F802E0BEF13F0F0BD8254A052111706F
:1031E000002ED6D10198002389F8003003B0BDE845
:1031F000F08F4022028001460420FFF7F9F80022F8
:10320000C8F80020E9E73A782AB3184D4AF2F924C1
:103210004FF0010A07E0013C16D02A78A2B900F06D
:1032200001FB3A78BAB10420FFF768F80728F2D812
:1032300089F800A0FFF7F2FEC8F800000028ACD122
:103240000C4B013C1870E8D101234FF0FF302B707C
:1032500003B0BDE8F08F00234FF0FF3089F8003055
:1032600003B0BDE8F08F00BFE096FF1FF096FF1F90
:10327000E896FF1FE996FF1FEC96FF1F00B583B08D
:1032800002AB012103F8010D1846FFF773FF03B0ED
:103290005DF804FB38B50E4D0E4C286801232370F1
:1032A00028B1408800232370C0F1400038BD0A4B8C
:1032B0001B7813B90020207038BD0420FFF71EF8DA
:1032C0000728F7D8FFF7AAFE28600028E9D1F1E720
:1032D000EC96FF1FE996FF1FE096FF1FF8B5114B14
:1032E0001B788BB1104E114D346801272F7064B1DB
:1032F0000F4A638800271770214623800420FFF7B8
:1033000077F8376000232B70F8BDFFF787FE084B76
:1033100028B1014604201C70FFF76AF8F2E71F701D
:10332000F0E700BFE096FF1FEC96FF1FE996FF1F36
:10333000E896FF1F38B50E4B1B7873B90D4C21680A
:1033400061B103F0FF054B880B800420FFF750F8B4
:10335000256038BD084B01221A7038BDFFF75EFEAC
:103360000028F7D00146BDE838400420FFF740B8F8
:10337000E996FF1FEC96FF1FE896FF1F10B4EFF3CE
:10338000108272B6437F33B9017F012907D0032928
:103390000FD00123437702B962B610BC7047124CBC
:1033A0002168A1B1114943610B68836108605861CC
:1033B000EFE70F4C216881B10E4943610B688361CF
:1033C000086058610C4B4FF080511960E1E7074BE2
:1033D0004161816120601860DBE7064B41618161DA
:1033E00020601860EEE700BF0C97FF1F0897FF1FD3
:1033F000FC96FF1F0097FF1F04ED00E010B4047F50
:103400004160022CC26002D010BCFFF7B7BF8368D6
:1034100010BC184770B5EFF3108272B60C4C2068E0
:1034200080B10C4E00254369236073B19D6102B9E0
:1034300062B6457783689847EFF3108272B62068CA
:103440000028F0D102B962B670BD3360EFE700BF6B
:10345000FC96FF1F0097FF1FFFF7DCBF184A30B430
:103460001468002C27D0036821688B420ED2CB1A37
:1034700000218460C1602360E06010600223037556
:1034800030BC704711688B42144608D3A2685B1A9F
:103490000360002AF6D18260C460A060EEE7D268C3
:1034A000C2608460E060C568CB1A0222A860236015
:1034B000027530BC70478460C4601060DEE700BFF6
:1034C0000497FF1FF8B5224E34682CB32368002BF5
:1034D0003AD1204F1D4604E03468ECB12368002B3C
:1034E00032D1A36803B1DD602069336003682575BC
:1034F0001B68BB4221D1037F4560022BC46020D0F2
:10350000FFF73CFF6368002BE6D023602046FFF7FF
:10351000A5FF3468002CE1D1EFF3108372B60E4A98
:1035200000211068116003B962B628B18468FFF702
:1035300095FF20460028F9D1F8BD22460021984782
:10354000E0E783689847DDE7013B2360E4E700BFDD
:103550000497FF1FFD3300001497FF1F024A1368F2
:1035600001331360FFF7AEBFFC95FF1F00B5064A9D
:10357000036812885B6883B001A9ADF804200222B9
:10358000984703B05DF804FB6074010010B5036850
:1035900014465B689847204610BD00BF0EB400B5C6
:1035A00082B003AA52F8041B019201F0FDFE02B0A2
:1035B0005DF804EB03B07047F0B507468BB0002A06
:1035C00033D0012A08BF0A2251B3212400E0F4B20B
:1035D000B1FBF2F502FB1511C8B2092900F1300167
:1035E00098BFC8B20AA988BF3730214488BFC0B28B
:1035F00001F8240C661E2946002DE8D133B1013CA8
:10360000E4B20AAB23442D2203F8242C3B6801AA20
:1036100011195B683846C4F1220298470BB0F0BD1F
:1036200030228DF825202124E8E70368C9B21B6801
:1036300098470BB0F0BD00BF2DE9F04385B0804640
:103640001946104616461F469DF8305001F010F8F6
:10365000002840F0B18027F00044304621464FF06A
:10366000FF32594B01F004F898B9304621464FF02B
:10367000FF32554B00F0DEFF58B9D8F800305349FF
:103680005B684046032298478146484605B0BDE83E
:10369000F083304639464FF060424D4B00F0DEFF7C
:1036A000002870D1304639464FF06042494B00F057
:1036B000B7FF002867D1304639460022002300F0CA
:1036C000AFFF002863D18146002D65D0424B002416
:1036D0000022104619463AA3D3E9002300F02EFD3C
:1036E00001340B46E1B28D420246F2D830463946EB
:1036F00000F072FB0F46064600F0D0FF044600F0D3
:10370000A7FC02460B463046394600F063FB4B46A9
:1037100006460F460A2221464046FFF74DFF0F2D71
:1037200028BF0F2501352E238146EDB28DF80030DC
:1037300001240022294B3046394600F0FFFC0F4699
:10374000064600F0ABFF04AB2344C0B200F13002E8
:1037500003F8102C00F08CFC02460B46304639462C
:1037600000F038FB0134E4B2AC4206460F46E0D12B
:10377000D8F8003022465B6840466946984748467C
:1037800005B0BDE8F083D8F80030154978E707F1B7
:1037900000474FF0010997E700220F4B30463946AA
:1037A00000F01AFB00F07AFF4B4601460A22404621
:1037B000FFF702FF814668E7D8F8003009495FE764
:1037C000000000A09999B93FFFFFEF7F6C740100E2
:1037D000FFFFEF41FFFFEFC10000E03F000024408A
:1037E000687401006474010008B5FDF731FDFDF750
:1037F00065FD00F017F8FAE7FFF7A0BCFFF778BC0B
:10380000FFF752BCFFF78CBCFFF768BDFFF742BD66
:1038100008461146FFF7AEBC0846FFF72FBD00BFB4
:10382000704700BF38B5224C237803B138BD01235F
:103830002370FFF775FC70BB00F0D8F840BB00F0B8
:103840006BF910BB00F0FEF9E0B900232370EFF331
:103850000583002BEAD1EFF3108172B6154B18687F
:10386000E0B1154C2278CAB945691D600123237067
:10387000C5B1AA6101B962B600254577836898474A
:103880002570D3E700F0A0FADFE700F09BFAD9E754
:1038900000F096FAD3E7FFF7C3FFCDE70029C5D1C3
:1038A00062B638BD054B1D600029E5D1E3E700BFD6
:1038B0001897FF1F0C97FF1F1097FF1F0897FF1FF8
:1038C00030B42948294A2A4B2A4D6024E12104704A
:1038D00011701B78284C082B30D00A2B2748284918
:1038E00037D00C2B0CBF35223D2212232A602360D7
:1038F00002600B60234B24491B78244ABBB101238F
:103900000B601360224B23491B78234A012B26D9D5
:10391000042B0FD9082B1ED9102B94BF8623872385
:103920000B6013601D4B01221A7030BC70470B6096
:103930001360E7E784230B601360F3E700F58E2044
:103940000F490830012213232A60236002600B60B4
:10395000D0E73922F7E785230B601360E2E7802385
:103960000B601360DEE700BF0040074001400740E6
:10397000F889FF1F08B003400CB0034008B00B40AB
:103980000CB00B401A97FF1F20B0034020B00B4033
:10399000F989FF1F24B0034024B00B401997FF1F83
:1039A000F0B44D1E2E46002400E00134B0FBF2F3CB
:1039B00002FB1300092800F130078ABF3730F8B244
:1039C000C0B206F8010F1846002BEED10A19537049
:1039D0004CB1107815F8016F28700133E01A83425A
:1039E00002F80169F5DB0846F0BC7047054A064B52
:1039F00010781B78C0B2DBB2984238BF4030C01A92
:103A0000704700BF2097FF1F2197FF1FF0B4384B6E
:103A10001A7912F0300F2CD072B6997D01F0FF02A6
:103A200000293DD062B6334F334938780D78334E94
:103A30001C46C0B2EDB2431C402BE17928BF0023E5
:103A4000AB4202F1FF32C9B21CBFF154184612F06A
:103A5000FF02F0D12A4B1B68C2B23A704BB1A842A8
:103A600036BFC5F14005401B40192728C4BF0122BD
:103A70001A701F49CA78D2B2150616D452060DD54F
:103A80001B4B1B795B0609D51E4B1F491B68002287
:103A90000A7003B11A70164B3C22DA70F0BC704702
:103AA0004022D9795A7462B6E3E70B791C06E5D552
:103AB000164B174E1C783378E4B2DBB29C420ED022
:103AC000144D01E0A3420AD00133402B28BF00234C
:103AD0000879E85CC0B2C871087D0728F2D9DBB26A
:103AE000034933700B79180644BF7C23CB70C5E7BC
:103AF00000A006402097FF1F2197FF1F6497FF1F1C
:103B00001C97FF1FA897FF1FA497FF1FAC97FF1FCD
:103B1000A597FF1F2497FF1F054A064B10781B78B7
:103B2000C0B2DBB2984238BF4030C01A704700BF05
:103B30002098FF1FB597FF1FF0B4384B1A7912F089
:103B4000300F2CD072B6997D01F0FF0200293DD0D4
:103B500062B6334F334938780D78334E1C46C0B2C5
:103B6000EDB2431C402BE17928BF0023AB4202F1A8
:103B7000FF32C9B21CBFF154184612F0FF02F0D157
:103B80002A4B1B68C2B23A704BB1A84236BFC5F18E
:103B90004005401B40192728C4BF01221A701F4945
:103BA000CA78D2B2150616D452060DD51B4B1B7916
:103BB0005B0609D51E4B1F491B6800220A7003B122
:103BC0001A70164B3C22DA70F0BC70474022D9794B
:103BD0005A7462B6E3E70B791C06E5D5164B174E0F
:103BE0001C783378E4B2DBB29C420ED0144D01E075
:103BF000A3420AD00133282B28BF00230879E85CB0
:103C0000C0B2C871087D0728F2D9DBB2034933700E
:103C10000B79180644BF7C23CB70C5E700B0064083
:103C20002098FF1FB597FF1FE097FF1FB097FF1F5A
:103C30002498FF1FB497FF1F2898FF1F2198FF1F8C
:103C4000B897FF1F054A064B10781B78C0B2DBB24D
:103C5000984238BF4030C01A704700BF3098FF1FED
:103C60003198FF1F30B42B4B1A7994061FD52A4880
:103C7000DA790378294901333F2B0978C8BF00233B
:103C80008B42D2B203D0264CD9B2E2540170254AFD
:103C9000116861B1244A1278D2B2934236BFC2F1A0
:103CA00040029B1A9B18272BC4BF01230B70194A93
:103CB000D378DBB2180611D45A060DD5154B1B79F3
:103CC0005B0609D5194B1A491B6800220A7003B11B
:103CD0001A70104B2C22DA7030BC7047117909062B
:103CE000EAD5144910480C780178C9B28C420DD03D
:103CF0004A1C272A84BF00210A460F4D054C98BF55
:103D0000D1B2AA5CD2B2E2710170D5E76C21D17058
:103D1000D2E700BF00C006403098FF1F3198FF1F58
:103D20005C98FF1F2C98FF1F9D98FF1FA098FF1FF6
:103D30009C98FF1FA498FF1F3498FF1F70B584B094
:103D400072B6194B194D1A48702241260F24802152
:103D50001A702E701A460470197013781B06FCD561
:103D6000144B186862B6144B144C984298BF00EB81
:103D7000800001A998BF40000A22FFF711FE01A9A7
:103D80002046002311F8012B01333AB10A2B20F809
:103D9000022FF7D11623237004B070BD5B00DBB295
:103DA000237004B070BD00BF000002400700024055
:103DB00006000240080002407F969800888AFF1F94
:103DC000704700BF704700BF704700BF81F00041DF
:103DD00002E000BF83F0004330B54FEA41044FEAF0
:103DE000430594EA050F08BF90EA020F1FBF54EA8B
:103DF000000C55EA020C7FEA645C7FEA655C00F027
:103E0000E2804FEA5454D4EB5555B8BF6D420CDDF7
:103E10002C4480EA020281EA030382EA000083EA7A
:103E2000010180EA020281EA0303362D88BF30BD1A
:103E300011F0004F4FEA01314FF4801C4CEA113170
:103E400002D0404261EB410113F0004F4FEA0333CF
:103E50004CEA133302D0524263EB430394EA050F5A
:103E600000F0A780A4F10104D5F1200E0DDB02FAC9
:103E70000EFC22FA05F2801841F1000103FA0EF25D
:103E8000801843FA05F359410EE0A5F120050EF123
:103E9000200E012A03FA0EFC28BF4CF0020C43FA54
:103EA00005F3C01851EBE37101F0004507D54FF061
:103EB000000EDCF1000C7EEB00006EEB0101B1F5B1
:103EC000801F1BD3B1F5001F0CD349085FEA3000F7
:103ED0004FEA3C0C04F101044FEA445212F5800F02
:103EE00080F09A80BCF1004F08BF5FEA500C50F19F
:103EF000000041EB045141EA050130BD5FEA4C0C82
:103F0000404141EB010111F4801FA4F10104E9D10A
:103F100091F0000F04BF01460020B1FA81F308BF01
:103F20002033A3F10B03B3F120020CDA0C3208DDCD
:103F300002F1140CC2F10C0201FA0CF021FA02F1A8
:103F40000CE002F11402D8BFC2F1200C01FA02F118
:103F500020FA0CFCDCBF41EA0C019040E41AA2BF3D
:103F600001EB0451294330BD6FEA04041F3C1CDA05
:103F70000C340EDC04F11404C4F1200220FA04F025
:103F800001FA02F340EA030021FA04F345EA0301CF
:103F900030BDC4F10C04C4F1200220FA02F001FA91
:103FA00004F340EA0300294630BD21FA04F0294613
:103FB00030BD94F0000F83F4801306BF81F48011AC
:103FC0000134013D4EE77FEA645C18BF7FEA655C1F
:103FD00029D094EA050F08BF90EA020F05D054EAF1
:103FE000000C04BF1946104630BD91EA030F1EBFF6
:103FF0000021002030BD5FEA545C05D140004941FA
:1040000028BF41F0004130BD14F580043CBF01F5EC
:10401000801130BD01F0004545F0FE4141F47001D2
:104020004FF0000030BD7FEA645C1ABF19461046AD
:104030007FEA655C1CBF0B46024650EA013406BFAE
:1040400052EA033591EA030F41F4002130BD00BF6D
:1040500090F0000F04BF0021704730B54FF480642A
:1040600004F132044FF000054FF0000150E700BFAB
:1040700090F0000F04BF0021704730B54FF480640A
:1040800004F1320410F0004548BF40424FF00001F7
:104090003EE700BF42004FEAE2014FEA31014FEA3A
:1040A00002701FBF12F07F4393F07F4F81F0605189
:1040B000704792F0000F14BF93F07F4F704730B5F8
:1040C0004FF4607401F0004521F0004120E700BF8B
:1040D00050EA010208BF704730B54FF000050AE012
:1040E00050EA010208BF704730B511F0004502D513
:1040F000404261EB41014FF4806404F132045FEA15
:10410000915C3FF4DCAE4FF003025FEADC0C18BFB9
:1041100003325FEADC0C18BF033202EBDC02C2F1AF
:10412000200300FA03FC20FA02F001FA03FE40EA41
:104130000E0021FA02F11444C1E600BF70B54FF041
:10414000FF0C4CF4E06C1CEA11541DBF1CEA135523
:1041500094EA0C0F95EA0C0F00F0DEF82C4481EA8B
:10416000030621EA4C5123EA4C5350EA013518BFAB
:1041700052EA033541F4801143F4801338D0A0FB98
:1041800002CE4FF00005E1FB02E506F00042E0FB45
:1041900003E54FF00006E1FB03569CF0000F18BF4B
:1041A0004EF0010EA4F1FF04B6F5007F64F54074F3
:1041B00004D25FEA4E0E6D4146EB060642EAC62186
:1041C00041EA55514FEAC52040EA5E504FEACE2EF3
:1041D000B4F1FD0C88BFBCF5E06F1ED8BEF1004FF6
:1041E00008BF5FEA500E50F1000041EB045170BD72
:1041F00006F0004646EA010140EA020081EA0301B6
:10420000B4EB5C04C2BFD4EB0C0541EA045170BDB1
:1042100041F480114FF0000E013C00F3AB8014F12B
:10422000360FDEBF002001F0004170BDC4F1000474
:10423000203C35DA0C341BDC04F11404C4F12005F5
:1042400000FA05F320FA04F001FA05F240EA020050
:1042500001F0004221F0004110EBD37021FA04F686
:1042600042EB06015EEA430E08BF20EAD37070BD40
:10427000C4F10C04C4F1200500FA04F320FA05F09F
:1042800001FA04F240EA020001F0004110EBD370A1
:1042900041F100015EEA430E08BF20EAD37070BD11
:1042A000C4F1200500FA05F24EEA020E20FA04F3EA
:1042B00001FA05F243EA020321FA04F001F0004199
:1042C00021FA04F220EA020000EBD3705EEA430E0A
:1042D00008BF20EAD37070BD94F0000F0FD101F039
:1042E0000046400041EB010111F4801F08BF013C72
:1042F000F7D041EA060195F0000F18BF704703F0B0
:104300000046520043EB030313F4801F08BF013D36
:10431000F7D043EA0603704794EA0C0F0CEA1355F2
:1043200018BF95EA0C0F0CD050EA410618BF52EAAC
:104330004306D1D181EA030101F000414FF00000B2
:1043400070BD50EA410606BF1046194652EA4306C0
:1043500019D094EA0C0F02D150EA013613D195EA34
:104360000C0F05D152EA03361CBF104619460AD17C
:1043700081EA030101F0004141F0FE4141F4700186
:104380004FF0000070BD41F0FE4141F4780170BD76
:1043900070B54FF0FF0C4CF4E06C1CEA11541DBFDB
:1043A0001CEA135594EA0C0F95EA0C0F00F0A7F8DD
:1043B000A4EB050481EA030E52EA03354FEA01310A
:1043C00000F088804FEA03334FF0805545EA13131D
:1043D00043EA12634FEA022245EA111545EA1065E5
:1043E0004FEA00260EF000419D4208BF964244F17C
:1043F000FD0404F5407402D25B084FEA3202B61A9B
:1044000065EB03055B084FEA32024FF480104FF46E
:10441000002CB6EB020E75EB030E22BFB61A7546E2
:1044200040EA0C005B084FEA3202B6EB020E75EB75
:10443000030E22BFB61A754640EA5C005B084FEADD
:104440003202B6EB020E75EB030E22BFB61A7546AA
:1044500040EA9C005B084FEA3202B6EB020E75EBB5
:10446000030E22BFB61A754640EADC0055EA060E76
:1044700018D04FEA051545EA16754FEA06164FEAB9
:10448000C30343EA52734FEAC2025FEA1C1CC0D165
:1044900011F4801F0BD141EA00014FF000004FF0F2
:1044A000004CB6E711F4801F04BF01430020B4F1B3
:1044B000FD0C88BFBCF5E06F3FF6AFAEB5EB030C6B
:1044C00004BFB6EB020C5FEA500C50F1000041EB68
:1044D000045170BD0EF0004E4EEA113114EB5C0435
:1044E000C2BFD4EB0C0541EA045170BD41F4801108
:1044F0004FF0000E013C90E645EA060E8DE60CEA10
:10450000135594EA0C0F08BF95EA0C0F3FF43BAF2C
:1045100094EA0C0F0AD150EA01347FF434AF95EAE3
:104520000C0F7FF425AF104619462CE795EA0C0FC7
:1045300006D152EA03353FF4FDAE1046194622E794
:1045400050EA410618BF52EA43067FF4C5AE50EA6E
:1045500041047FF40DAF52EA43057FF4EBAE12E75E
:104560004FF0FF3C06E000BF4FF0010C02E000BF3F
:104570004FF0010C4DF804CD4FEA410C7FEA6C5C22
:104580004FEA430C18BF7FEA6C5C1BD001B050EAC5
:10459000410C0CBF52EA430C91EA030F02BF90EAB0
:1045A000020F0020704710F1000F91EA030F58BF6F
:1045B000994208BF90422CBFD8176FEAE37040F0D1
:1045C000010070474FEA410C7FEA6C5C02D150EA6F
:1045D000013C07D14FEA430C7FEA6C5CD6D152EA2A
:1045E000033CD3D05DF8040B704700BF84461046EF
:1045F00062468C461946634600E000BF01B5FFF7EE
:10460000B7FF002848BF10F1000F01BD4DF808EDBD
:10461000FFF7F4FF0CBF012000205DF808FB00BF8E
:104620004DF808EDFFF7EAFF34BF012000205DF8E8
:1046300008FB00BF4DF808EDFFF7E0FF94BF012035
:1046400000205DF808FB00BF4DF808EDFFF7CEFF36
:1046500094BF012000205DF808FB00BF4DF808ED75
:10466000FFF7C4FF34BF012000205DF808FB00BF46
:104670004FEA410C7FEA6C5C02D150EA013C0AD15E
:104680004FEA430C7FEA6C5C02D152EA033C02D150
:104690004FF0000070474FF0010070474A0011D200
:1046A00012F5001211D20DD56FF47873B3EB62528C
:1046B0000ED44FEAC12343F0004343EA505323FA98
:1046C00002F070474FF00000704750EA013002D10D
:1046D0004FF0FF3070474FF000007047014B1868F3
:1046E000704700BFC88EFF1F70B50F4E0F4D761B71
:1046F000B61018BF002405D0013455F8043B984784
:10470000A642F9D10A4E0B4D761B13F033F8B610C2
:1047100018BF002406D0013455F8043B9847A64240
:10472000F9D170BD70BD00BF8077010080770100B6
:104730008C77010080770100024B0146186800F079
:1047400003B800BFC88EFF1F2DE9F04F01F10B0524
:10475000162D83B0064640F29F8035F0070500F124
:10476000BF80A94200F2BC8000F06EFBB5F5FC7F73
:10477000C0F09C826B0A00F0BA80042B00F28381A7
:10478000A80900F1390E4FEA4E033830C44F07EB49
:104790008303A3F108015C68A14207D1ACE0002AC1
:1047A00080F2AC80E468A14200F0A680636823F048
:1047B00003035A1B0F2AF2DDB9493C6901F1080EC7
:1047C000744500F0B381636823F003035A1B0F2A7A
:1047D00000F39981002AC1F814E0C1F810E080F2DA
:1047E0009E80B3F5007F80F06781DB0803F1010C48
:1047F00001229B1002FA03F34A6851F83C80C4F886
:10480000088001EBCC091A43A9F10803E3604A6070
:1048100041F83C40C8F80C40831001249C4094426D
:1048200000F28A80144206D120F003006400144292
:1048300000F10400FAD007EBC009CC468046DCF852
:104840000C108C4507D173E1002A80F28181C96880
:104850008C4500F06D814B6823F003035A1B0F2A2F
:10486000F2DD0C46D1F80CC054F8088F4B1945F016
:1048700001054D6042F00101C8F80CC03046CCF88B
:1048800008807B613B61C3F80CE0C3F808E0596025
:104890009A5000F0DBFA1FE0102921D800F0D4FA7A
:1048A0001025062302207E4F07EB8303A3F10802A5
:1048B0005C68944200F045816368E168A56823F074
:1048C0000303234430465A68E96042F001028D60D8
:1048D0005A6000F0BBFA0834204603B0BDE8F08F00
:1048E00000240C232046336003B0BDE8F08F802302
:1048F0004FF0400E3F2049E770465DE72344E168F2
:104900005A68A56842F00102E96030468D605A603D
:1049100000F09CFA0834204603B0BDE8F08F234431
:1049200030465A6842F001025A6000F08FFA0834AB
:10493000204603B0BDE8F08FBC68636823F003082D
:10494000A84504D3C5EB08030F2B00F38C80554B0F
:10495000DFF860911A68D9F8003001332A4404EB7B
:10496000080A00F0608102F580520F3222F47F6263
:1049700022F00F0211463046019200F059FCB0F1CE
:10498000FF3F8346019A00F05881824500F2FC8087
:10499000454B1968DA451144196000F05381D9F884
:1049A0000000DFF810E101301BBFCAEB0B0A5144D5
:1049B000CEF800B019601BF0070100F01781C1F1BB
:1049C0000800C1F58051834408315A44C2F30B02F8
:1049D000C2EB010949463046019300F029FC431C13
:1049E000019B00F03F81CBEB00024A4442F0010200
:1049F0001968C7F808B04944BC42CBF804201960D4
:104A0000DFF8A49016D0B8F10F0F40F2FD80626875
:104A1000A8F10C0323F00703E01802F001024FF0A5
:104A2000050E1A430F2B6260C0F804E0C0F808E0DE
:104A300000F21C811D4BBC681A68914288BF196046
:104A40001B4B1A689142626888BF196022F003020A
:104A50009542A2EB050301D80F2B04DC304600F091
:104A6000F5F9002438E7621943F0010345F0010528
:104A700065603046BA60536000F0E8F908342046BB
:104A800003B0BDE8F08F142B71D9542B00F2A48031
:104A9000280B00F16F0E4FEA4E036E3076E600BF32
:104AA0003890FF1FB098FF1FB498FF1FAC98FF1FEE
:104AB000A898FF1F4494FF1F5A0A042A5ED9142A9B
:104AC00000F2B38002F15C0149005B3207EB810C1C
:104AD00057F82110DFF8DC81ACF1080C8C4500F0B0
:104AE00088804A6822F00302934202D289688C458A
:104AF000F7D1D1F80CC07A68C4F80CC0A160CCF82A
:104B00000840CC6088E6631942F0010745F00105D2
:104B1000656030464B610B61C3F80CE0C3F808E0F8
:104B20005F609A50083400F091F9D5E64A6873E660
:104B300008F1010818F0030F0CF1080C7FF47FAEA8
:104B400030E0DC68A34208BF02303FF435AEB3E684
:104B50000B440C465A68C96854F8085F42F00102D9
:104B60005A603046E9608D6000F070F9B4E603F1F8
:104B70005C0E03F15B004FEA4E0307E69A0902F16F
:104B8000390149003832A1E7BC424A4B3FF400AF3B
:104B90009C68626822F003025AE759F8083999457F
:104BA00040F0828010F0030F00F1FF30F5D17B68F8
:104BB00023EA04037B6064009C423FF6BDAE002CF8
:104BC0003FF4BAAE1C4240467FF435AE64001C424E
:104BD00000F10400FAD02EE6B3F5AA7F18D8E80B4E
:104BE00000F1780E4FEA4E037730CFE54FF4805155
:104BF000EBE60121D8F80430921001FA02F21A43D0
:104C0000C8F80420614677E70123CBF8043025E794
:104C100040F25452934220D8A80C00F17D0E4FEA86
:104C20004E037C30B2E51032A4E6542A26D81A0B83
:104C300002F16F0149006E3248E7BC68626822F0F9
:104C4000030205E7CAF30B0000287FF4A8AE424434
:104C5000BB6842F001025A60ECE6FE234FF07F0E83
:104C60007E2093E501224FF00009C1E604F108011E
:104C7000304600F03BFCD9F80010DBE6B2F5AA7F25
:104C800005D8DA0B02F17801490077321EE740F2CD
:104C900054518A4205D89A0C02F17D0149007C32B8
:104CA00014E7FE217E2211E77B6884E7E808431CB5
:104CB0005B00F8E53890FF1F82B049B15AB16BB183
:104CC00013780B601278101C18BF012002B07047D7
:104CD00001A9002AF3D1104602B070476FF001001D
:104CE000F4E700BF8842F0B50DD98B1898420AD27C
:104CF0008118002A51D09A1A13F8014D01F8014D7C
:104D00009342F9D1F0BD0F2A48D941EA00039B072D
:104D100046D100F1100401F11003154653F8106C50
:104D200044F8106C53F80C6C44F80C6C53F8086C95
:104D300044F8086C103D53F8046C44F8046C0F2DD3
:104D400003F1100304F11004E8D8A2F1100323F0DA
:104D50000F0302F00F0E1033BEF1030F194403448A
:104D600021D91E1F0D467446043C55F8047B46F8B5
:104D7000047F032CF8D8AEF1040424F003040434B7
:104D80002344214402F0030262B1013B0A4411F8BA
:104D9000014B03F8014F8A42F9D1F0BD0346F3E716
:104DA0000346F2E7F0BD7246EEE700BF70B4840739
:104DB00046D0541E002A41D0CDB2034602E0621E06
:104DC000E4B3144603F8015B9A07F8D1032C2ED9FB
:104DD000CDB245EA05250F2C45EA054519D903F161
:104DE00010022646103E0F2E42F8105C42F80C5C72
:104DF00042F8085C42F8045C02F11002F2D8A4F117
:104E0000100222F00F0204F00F041032032C13449E
:104E10000DD91E462246043A032A46F8045BFAD806
:104E2000221F22F003020432134404F003042CB1C5
:104E3000C9B21C4403F8011BA342FBD170BC7047EC
:104E400014460346C2E700BF704700BF704700BF6B
:104E50002DE9F04F174683B0002900F0C1800E46BF
:104E6000814607F10B05FFF7EFFF56F804EC162D0E
:104E70002EF00304A6F1080840D810221546AF42D0
:104E800041D8944275DAC94B996808EB040088420E
:104E9000416800F0D98021F0010303445B68DB071F
:104EA0007DD51EF0010F35D039464846FFF74CFC42
:104EB0000746E0B156F8043C23F001034344A0F157
:104EC00008029A4200F04481221F242A00F2318114
:104ED000132A00F2048103463246116819605168B2
:104EE000596092689A603146484600F0FFFA484699
:104EF000FFF7ACFF384603B0BDE8F08F25F007059B
:104F0000002D2A46BBDA0C230020C9F8003003B07C
:104F1000BDE8F08F56F8083CC3EB080ADAF8043015
:104F200023F0030C04EB0C039342BDDB5746DAF885
:104F30000C1057F8080F221F242AC160886000F265
:104F40001781132A40F212813168CAF8081071687B
:104F5000CAF80C101B2A00F22B8108360AF1100245
:104F60003168116071685160B16891603E461C46BD
:104F7000D046631B0F2B1DD8D8F8043003F0010373
:104F800023434444C8F80430636843F0010363607A
:104F90004846FFF75BFF304603B0BDE8F08F21F0D5
:104FA00003012144914221DBC36882680C46D3602F
:104FB0009A60DEE7D8F8042008EB050102F0010250
:104FC000154343F001020B44C8F804504A605A6884
:104FD00042F0010208315A60484600F087FAD7E7EC
:104FE000114603B0BDE8F04FFFF7AEBB1EF0010F56
:104FF0007FF45AAF56F8083CC3EB080ADAF80430DD
:1050000023F0030C01EB0C0E96458BDBC368826822
:105010005746D3609A6057F8081FDAF80C30CB6017
:10502000221F242A996000F29980132A62D93368DA
:10503000CAF808307368CAF80C301B2A00F2A08046
:1050400008360AF1100356E021F0030BA34405F1E2
:105050001000834559DA1EF0010F7FF425AF56F892
:10506000081CC1EB080ADAF8041021F0030CE34431
:1050700058453FF757AF5746DAF80C1057F8080F66
:10508000221F242AC160886000F2B480132A40F2F3
:10509000A5803168CAF808107168CAF80C101B2A7C
:1050A00000F2AF8008360AF11002316811607168B1
:1050B0005160B16891600AEB0501C5EB0B0242F04B
:1050C000010299604A60DAF8043003F001031D43DD
:1050D0004846CAF80450FFF7B9FE38465CE7336823
:1050E0000360736843601B2A27D800F1080306F1A8
:1050F0000802F2E63B4632681A6072685A60B2688B
:105100009A603E467446D04633E708EB0501C5EB8E
:105110000B0B4BF0010299604A6056F8043C03F017
:1051200001031D43484646F8045CFFF78FFE3046F6
:1051300032E73146FFF7D6FDD5E6B3688360F36802
:10514000C360242A28D000F1100306F11002C4E63F
:1051500050F8043C23F003031C440AE73146384668
:105160007446D046FFF7BEFD3E4602E73A46F7E6F4
:10517000314638461C46D046FFF7B4FD3E46F8E6B9
:10518000B368CAF81030F368CAF81430242A1BD068
:1051900010360AF11803AEE733690361736943619E
:1051A00006F1180200F1180397E600BF3890FF1FC0
:1051B000B168CAF81010F168CAF81410242A0FD088
:1051C00010360AF11802CBE63369CAF81830736951
:1051D000CAF81C3018360AF120038CE73A4664E717
:1051E0003269CAF818207269CAF81C2018360AF108
:1051F0002002B5E6314638460193FFF773FD019B67
:1052000059E7B168CAF81010F168CAF81410242AD6
:1052100003D010360AF1180247E73269CAF818209D
:105220007269CAF81C2018360AF120023DE700BF57
:1052300038B5074C0023054608462360FCF7FEFD01
:10524000431C00D038BD2368002BFBD02B6038BD39
:10525000F098FF1FFFFFFFFFFFFFFFFFFFFFFFFFB4
:10526000FFFFFFFFFFFFFFFFFFFFFFFFFFFFFFFF4E
:10527000FFFFFFFFFFFFFFFFFFFFFFFFFFFFFFFF3E
:1052800090F800F06DE9024520F007016FF0000C86
:1052900010F0070491F820F040F049804FF000042E
:1052A0006FF00700D1E9002391F840F000F1080009
:1052B00082FA4CF2A4FA8CF283FA4CF3A2FA8CF341
:1052C0004BBBD1E9022382FA4CF200F10800A4FAA8
:1052D0008CF283FA4CF3A2FA8CF3E3B9D1E90423FC
:1052E00082FA4CF200F10800A4FA8CF283FA4CF333
:1052F000A2FA8CF37BB9D1E9062301F1200182FAED
:105300004CF200F10800A4FA8CF283FA4CF3A2FAF2
:105310008CF3002BC6D0002A04BF04301A4612BA00
:10532000B2FA82F2FDE8024500EBD2007047D1E903
:10533000002304F00305C4F100004FEAC50514F092
:10534000040F91F840F00CFA05F562EA05021CBF63
:1053500063EA050362464FF00004A9E7F0B5ADF536
:10536000057D04AD00930F4613464FF4007403AA65
:1053700029460394064600F011FD88B10446024612
:105380003946039B304600F029F8AC42039004D024
:105390003046214600F0AAF803980DF5057DF0BDD2
:1053A0004FF0FF30F9E700BF10B4044C13460A4633
:1053B0000146206810BCFFF7D1BF00BFC88EFF1F99
:1053C00021B1FF2A04D80A700120704708467047AF
:1053D0008A2303604FF0FF30704700BF70B50D4661
:1053E000084C114606461A46284600232360FEF75D
:1053F000CDF8431C00D070BD2368002BFBD0336078
:1054000070BD00BFF098FF1F024B13B1024800F0BF
:1054100005B8704700000000295400000023014631
:105420001A46184600F0EABC38B5074D074C2C1B4D
:10543000A41005D0013C55F8043D9847002CF9D143
:10544000BDE8384012F0A2B90000000000000000E2
:10545000F8B5234F0C460646FFF7F6FCBB685D68BF
:1054600025F00305291B01F6EF7121F47F6121F07E
:105470000F01A1F58054B4F5805F07DB00213046B1
:10548000FFF7D6FEBB682B44984204D03046FFF7A6
:10549000DDFC0020F8BD61423046FFF7C9FE013057
:1054A0000DD0104BBA6819682D1B45F00105304628
:1054B000091B55601960FFF7C9FC0120F8BD0021E8
:1054C0003046FFF7B5FEBA68831A0F2BDEDD064CB7
:1054D0000449246843F00103001B53600860D5E7CA
:1054E0003890FF1FB498FF1F4494FF1F002945D038
:1054F0002DE9F0410D468046FFF7A6FC55F8047CE7
:105500006A4927F00103A5F10804E2188E68506883
:10551000B24220F0030062D0FE0750600BD455F871
:10552000087CE41B01F1080EA56875453B446FD06B
:10553000E768EF60BD6015186D68ED0742D543F070
:1055400001026260E350B3F5007F18D2DB085A1CF9
:105550004D6851F83270A76001209B1000FA03F3E8
:1055600001EBC2001D430838E0604D6041F8324055
:10557000FC604046BDE8F041FFF768BC70475A0A3E
:10558000042A53D89A0902F139077F0002F138053D
:1055900001EB870051F827204449083890424DD04C
:1055A000516821F003018B4202D292689042F7D1F8
:1055B000D068E060A2608460D4604046BDE8F041FD
:1055C000FFF744BC95683A4FBD4203443FD0D068D2
:1055D000E86043F0010285606260E350B3E7FF07D3
:1055E000034407D455F8082CA41A1344A068E268B1
:1055F000C26090602F4A126843F0010093426060DD
:105600008C60B6D32C4B40461968FFF721FFB0E7FA
:1056100011184968C90744D49168D268CA60034424
:1056200043F0010091606060E350A2E7142A17D8AC
:1056300002F15C077F0002F15B05A9E7AA104B6845
:10564000012505FA02F213434B600246B1E743F02D
:1056500001024C610C61E560A5606260E35088E77F
:10566000542A06D81A0B02F16F077F0002F16E056B
:105670008EE7B2F5AA7F06D8DA0B02F178077F0031
:1056800002F1770584E740F25450824206D89A0C22
:1056900002F17D077F0002F17C0579E7FE277E2578
:1056A00076E743F001026260E35062E73890FF1F43
:1056B0004090FF1F4094FF1FB098FF1F044A054B06
:1056C0001268506B002808BF1846F030704700BFC2
:1056D000C88EFF1FCC8EFF1FFFFFFFFFFFFFFFFFE6
:1056E00001F0FF01102A2BDB10F0070F08D010F893
:1056F000013B013A8B422DD010F0070F42B3F6D197
:10570000F0B441EA012141EA014122F007047FF0AF
:1057100000070023F0E80256083C85EA010586EA06
:10572000010685FA47F5A3FA87F586FA47F6A5FA42
:1057300087F68EB9EED1F0BC01F0FF0102F007024E
:1057400032B110F8013B013A83EA010313B1F8D1F9
:105750000020704701387047002D06BF35460338DA
:10576000073815F0010F07D1013015F4807F02BF13
:10577000013015F4C03F0130F0BC0138704700BF64
:10578000C36C70B505460C464BB153F8240080B18C
:10579000026843F8242000230361C36070BD212206
:1057A000042100F07DFBE86403460028EDD10020D1
:1057B00070BD012101FA04F6721D2846920000F026
:1057C0006FFB0028F3D044608660E4E731B1C36C1E
:1057D0004A6853F82200086043F82210704700BF5F
:1057E000F0B50C6983B00D46064601F1140E002792
:1057F000DEF8000081B202FB01310B0C000C02FB51
:10580000003389B2013701EB0341BC424EF8041B5F
:105810004FEA1343ECDC3BB1AA68944207DA05EB8C
:105820008402013453612C61284603B0F0BD6968DD
:10583000019301313046FFF7A3FF2A69023205F1D7
:105840000C01074692000C30FCF72EFAF26C6968E6
:10585000019B52F82100286042F821503D46DEE7C6
:10586000030C1B04B3B90004102310F07F4F04BFD6
:105870000002083310F0704F04BF0001043310F031
:10588000404F04BF80000233002807DB420003D4EE
:10589000202070470023E8E7581C704718467047DF
:1058A000036813F0070207D0D90720D49A0720D441
:1058B0009B0803600220704799B209B91B0C1022A3
:1058C00013F0FF0F04BF1B0A0832190704BF1B099E
:1058D0000432990704BF9B080232D90704D45B083D
:1058E00001D120207047013203601046704700202C
:1058F00070475B0803600120704700BF10B50C467D
:105900000121FFF73DFF01224461026110BD00BF8C
:105910002DE9F04F0D691769BD4283B00C4616465C
:1059200004DA2A4634463D460E461746A3686168A7
:1059300005EB07089845C8BF0131FFF721FF00F1CB
:10594000140C0CEB8809CC45009005D2634600216D
:1059500043F8041B9945FBD806F1140202EB870AB1
:1059600004F11403524503EB850E54D2CDF8049094
:10597000994652F8043B1FFA83FBBBF1000F20D07D
:1059800000204F466646054600E01E4657F8044B89
:105990003068A1B283B20BFB0131240C000C4B190F
:1059A0000BFB040000EB134099B2334641EA00417F
:1059B000BE454FEA104543F8041BE6D8756052F81F
:1059C000043C5FEA134B20D0DCF8003067461846F1
:1059D0004D46002100E037462C88000C0BFB0400EC
:1059E00001449CB23E4644EA014346F8043B7868D1
:1059F00055F8044B83B2240C0BFB043404EB114325
:105A0000AE454FEA1341E6D87B6092450CF1040C99
:105A1000AFD8DDF80490B8F1000F0BDD59F8043C65
:105A2000A9F104091BB105E059F8043D13B9B8F117
:105A30000108F9D10098C0F8108003B0BDE8F08FDC
:105A400012F003032DE9F041144607462ED10E460D
:105A5000A4101CD0BD6C95B3E3074FF0000806D42A
:105A6000641014D02868A8B10546E307F8D52A4683
:105A700031463846FFF74CFFB6B17268FB6C6410D4
:105A800053F82210316043F822600646EAD13046CE
:105A9000BDE8F0812A4629463846FFF739FF2860DD
:105AA000C0F800800546E0E70646D9E75A1E0B4DD0
:105AB000002355F82220FFF793FE0646C8E7012190
:105AC0003846FFF75DFE40F271210122002341615B
:105AD00002610546B8640360BEE700BFD0760100EE
